:020000040800F2
:100000000000012085020008D5020008D502000882
:10001000D5020008D5020008D50200080000000043
:10002000000000000000000000000000D5020008F1
:10003000D502000800000000D5020008D502000823
:10004000D5020008D5020008D5020008D502000834
:10005000D5020008D5020008D5020008D502000824
:10006000D5020008D5020008D5020008D502000814
:10007000D5020008D5020008D5020008D502000804
:10008000D5020008D5020008D502000800000000D3
:10009000000000000000000000000000D502000881
:1000A000D5020008D5020008D5020008D5020008D4
:1000B000D5020008D5020008D5020008D5020008C4
:1000C000D5020008D5020008D5020008D5020008B4
:1000D000D5020008D5020008D50200080000000083
:1000E000D5020008D5020008D50200080000000073
:1000F000000000000000000000000000D502000821
:1001000000000000D5020008D5020008D502000852
:1001100000000000000000000000000000000000DF
:10012000D5020008D5020008D5020008D502000853
:10013000D5020008000000000000000000000000E0
:10014000000000000000000000000000D5020008D0
:10015000D5020008D5020008D5020008D502000823
:10016000D5020008D50200080000000000000000D1
:10017000000000000000000000000000000000007F
:1001800000000000D5020008000000000000000090
:04019000D50200088C
:1001940010B5054C237833B9044B13B10448AFF3BD
:1001A40000800123237010BD000000200000000027
:1001B4002003000808B5034B1BB103490348AFF300
:1001C400008008BD00000000040000202003000897
:1001D40080B485B000AF78600023FB6002E0FB6868
:1001E4000133FB60FA687B689A42F8DB00BF00BF0A
:1001F4001437BD465DF8047B7047000080B582B0BB
:1002040000AF134B1B6B124A43F001031363114BF2
:100214001B68104A43F0010313600E4B5B680D4AE0
:1002240023F0010353600C4B7B600A4B5B69094A62
:1002340043F0010353617868FFF7CAFF054B5B691C
:10024400044A23F0010353617868FFF7C1FFEAE72A
:10025400003802400000024040420F0080B400AF6A
:10026400064BD3F88830054A43F47003C2F888304B
:1002740000BFBD465DF8047B704700BF00ED00E0A1
:10028400DFF834D00D480E490E4A002302E0D4585A
:10029400C4500433C4188C42F9D30B4A0B4C0023CA
:1002A40001E013600432A242FBD3FFF7D7FF00F052
:1002B40011F8FFF7A3FF70470000012000000020A1
:1002C4000000002040030008000000201C00002063
:1002D400FEE7000070B50D4D0D4C641BA410002604
:1002E400A64209D10B4D0C4C00F018F8641BA41065
:1002F4000026A64205D170BD55F8043B9847013647
:10030400EEE755F8043B98470136F2E73803000856
:1003140038030008380300083C030008F8B500BFA0
:10032400F8BC08BC9E467047F8B500BFF8BC08BCD2
:040334009E4670472A
:04033800B9010008FF
:04033C00950100081F
:040000050800028568
:00000001FF
