:020000040800F2
:1000000000000120C50600081507000815070008B4
:100010001507000815070008150700080000000074
:1000200000000000000000000000000015070008AC
:100030001507000800000000150700081507000854
:100040001507000815070008150700081507000820
:100050001507000815070008150700081507000810
:100060001507000815070008150700081507000800
:1000700015070008150700081507000815070008F0
:100080001507000815070008150700080000000004
:10009000000000000000000000000000150700083C
:1000A00015070008150700081507000815070008C0
:1000B00015070008150700081507000815070008B0
:1000C00015070008150700081507000815070008A0
:1000D00015070008150700081507000800000000B4
:1000E00015070008150700081507000800000000A4
:1000F00000000000000000000000000015070008DC
:100100000000000015070008150700081507000883
:1001100000000000000000000000000000000000DF
:10012000150700081507000815070008150700083F
:10013000150700080000000000000000000000009B
:10014000000000000000000000000000150700088B
:10015000150700081507000815070008150700080F
:100160001507000815070008000000000000000047
:10017000000000000000000000000000000000007F
:10018000000000001507000800000000000000004B
:040190001507000847
:1001940010B5054C237833B9044B13B10448AFF3BD
:1001A40000800123237010BD000000200000000027
:1001B4006007000808B5034B1BB103490348AFF3BC
:1001C400008008BD00000000040000206007000853
:1001D40080B485B000AFB9607A603B600346FB73BE
:1001E400FB7B412B03D0422B00F085800AE1884B36
:1001F4001B6B874A43F0010313637B68032B00F2F4
:10020400FE8001A252F823F01D02000875020008C6
:10021400C9020008E10200087E4B1B68BA6852005C
:10022400032101FA02F2D24311467A4A0B401360C9
:100234003B68012B03D03B68022B0CD05AE0754B72
:10024400DB68BA685200012101FA02F21146714AD0
:100254000B43D3600BE06F4BDB68BA68520002219A
:1002640001FA02F211466B4A0B43D36000BF41E02E
:10027400684B1B68BA685200012101FA02F2114668
:10028400644A0B4313603B68002B03D03B68012B8B
:100294000CD02FE05F4B5B680121BA6801FA02F2CF
:1002A400D24311465B4A0B4053600AE0594B5B68EA
:1002B4000121BA6801FA02F21146564A0B4353600F
:1002C40000BF17E0534B1B68BA685200022101FAC1
:1002D40002F211464F4A0B4313600BE04D4B1B686F
:1002E400BA685200032101FA02F21146494A0B434B
:1002F400136000BF83E0464B1B6B454A43F0020387
:1003040013637B68032B7CD801A252F823F000BF4F
:10031400250300087D030008D1030008E903000851
:100324003D4B1B68BA685200032101FA02F2D24322
:100334001146394A0B4013603B68012B03D03B68DC
:10034400022B0CD05AE0344BDB68BA68520001210E
:1003540001FA02F21146304A0B43D3600BE02E4BF4
:10036400DB68BA685200022101FA02F211462A4AF5
:100374000B43D36000BF41E0274B1B68BA685200AF
:10038400012101FA02F21146234A0B4313603B6830
:10039400002B03D03B68012B0CD02FE01E4B5B6875
:1003A4000121BA6801FA02F2D24311461A4A0B40FB
:1003B40053600AE0184B5B680121BA6801FA02F243
:1003C4001146154A0B43536000BF17E0124B1B68DC
:1003D400BA685200022101FA02F211460E4A0B4396
:1003E40013600BE00C4B1B68BA685200032101FA3E
:1003F40002F21146084A0B43136000BF01E000BF3C
:1004040000E000BF00BF1437BD465DF8047B7047B1
:1004140000380240000002400004024080B487B06B
:1004240000AF0346B9607A60FB73FB7B412B02D0BB
:10043400422B2DD059E0304B1B68BA68520003217F
:1004440001FA02F21A40BB685B0022FA03F3012BA3
:100454001BD17B68002B0AD0274B5B690121BA684A
:1004640001FA02F21146244A0B4353610AE0224B7B
:100474005B690121BA6801FA02F2D24311461E4AAD
:100484000B4053610023FB752FE00123FB752CE027
:100494001A4B1B68BA685200012101FA02F21A4091
:1004A400BB685B0022FA03F3002B1BD07B68002B94
:1004B4000AD0124B5B690121BA6801FA02F21146B3
:1004C4000E4A0B4353610AE00C4B5B690121BA6885
:1004D40001FA02F2D2431146084A0B405361002349
:1004E400FB7501E00123FB7500BFFB7D18461C373B
:1004F400BD465DF8047B70470000024000040240E2
:1005040080B485B000AF03463960FB71FB79412BA1
:1005140002D0422B1ED03BE0214B1B683A685200AC
:10052400032101FA02F21A403B685B0022FA03F34A
:10053400002B0CD11A4B1B69DAB201213B6801FA7A
:1005440003F3DBB21340FB730023BB7320E00123EE
:10055400BB731DE0134B1B683A685200032101FA78
:1005640002F21A403B685B0022FA03F3002B0CD121
:100574000C4B1B69DAB201213B6801FA03F3DBB2CD
:100584001340FB730023BB7301E00123BB7300BF63
:10059400FB7B18461437BD465DF8047B704700BFEB
:1005A400000002400004024080B485B000AF7860CF
:1005B4000023FB6002E0FB680133FB60FA687B68A0
:1005C4009A42F8DB00BF00BF1437BD465DF8047BD8
:1005D4007047000080B582B000AF012300220321E0
:1005E4004220FFF7F5FD0023012205214220FFF7F9
:1005F400EFFD0023012206214220FFF7E9FD00233D
:10060400012207214220FFF7E3FD224B3B60002338
:100614007B6003214220FFF773FF0346002B34D194
:100624003B681D4A82FB03125211DB17D31A18468A
:10063400FFF7BAFF03214220FFF762FF0346002BB6
:1006440023D17B6801335A4203F0070302F0070207
:1006540058BF53427B607B6803F001031A460521AF
:100664004220FFF7DBFE7B685B1003F001031A46B0
:1006740006214220FFF7D2FE7B689B1003F00103A2
:100684001A4607214220FFF7C9FE3868FFF78CFF9E
:10069400BFE700BF40420F001F85EB5180B400AF9D
:1006A400064BD3F88830054A43F47003C2F8883007
:1006B40000BFBD465DF8047B704700BF00ED00E05D
:1006C400DFF834D00D480E490E4A002302E0D45816
:1006D400C4500433C4188C42F9D30B4A0B4C002386
:1006E40001E013600432A242FBD3FFF7D7FF00F00E
:1006F40011F8FFF76FFF7047000001200000002091
:100704000000002080070008000000201C000020DA
:10071400FEE7000070B50D4D0D4C641BA4100026BF
:10072400A64209D10B4D0C4C00F018F8641BA41020
:100734000026A64205D170BD55F8043B9847013602
:10074400EEE755F8043B98470136F2E778070008CE
:1007540078070008780700087C070008F8B500BF90
:10076400F8BC08BC9E467047F8B500BFF8BC08BC8E
:040774009E467047E6
:04077800B9010008BB
:04077C0095010008DB
:04000005080006C524
:00000001FF
