:020000040800F2
:1000000000000120050600085506000855060008F6
:1000100055060008550600085506000800000000B7
:10002000000000000000000000000000550600086D
:100030005506000800000000550600085506000897
:100040005506000855060008550600085506000824
:100050005506000855060008A5040008ED04000830
:100060005506000855060008550600085506000804
:1000700055060008550600085506000855060008F4
:100080005506000855060008550600080000000047
:1000900000000000000000000000000055060008FD
:1000A00055060008550600085506000855060008C4
:1000B00055060008550600085506000855060008B4
:1000C00055060008550600085506000855060008A4
:1000D00055060008550600085506000800000000F7
:1000E00055060008550600085506000800000000E7
:1000F000000000000000000000000000550600089D
:1001000000000000550600085506000855060008C6
:1001100000000000000000000000000000000000DF
:100120005506000855060008550600085506000843
:10013000550600080000000000000000000000005C
:10014000000000000000000000000000550600084C
:100150005506000855060008550600085506000813
:1001600055060008550600080000000000000000C9
:10017000000000000000000000000000000000007F
:10018000000000005506000800000000000000000C
:040190005506000808
:1001940010B5054C237833B9044B13B10448AFF3BD
:1001A40000800123237010BD3400002000000000F3
:1001B400A006000808B5034B1BB103490348AFF37D
:1001C400008008BD0000000038000020A0060008E0
:1001D40080B483B000AF0346FB71084B1B68FA7907
:1001E400012101FA02F21146044A0B43136000BFD5
:1001F4000C37BD465DF8047B704700BF30380240C1
:1002040090B482B000AF0446084611461A4623460D
:10021400FB710346BB710B467B7113463B71FA7944
:10022400564913469B0013449B000B441B681968F2
:10023400BB795B00032202FA03F3DB431C46FA7921
:100244004E4813469B0013449B0003441B6801EA79
:1002540004021A60FA79494913469B0013449B002F
:100264000B441B6819687A79BB795B0002FA03F3C3
:100274001C46FA79414813469B0013449B000344EF
:100284001B6841EA04021A60FA793C4913469B0050
:1002940013449B000B4404331B681968BB79012287
:1002A40002FA03F3DB431C46FA79344813469B00F5
:1002B40013449B00034404331B6801EA04021A60DC
:1002C400FA792E4913469B0013449B000B440433D4
:1002D4001B6819683B7903F00102BB7902FA03F346
:1002E4001C46FA79254813469B0013449B0003449B
:1002F40004331B6841EA04021A60FA791F49134661
:100304009B0013449B000B4408331B681968BB799A
:100314005B00032202FA03F3DB431C46FA79174815
:1003240013469B0013449B00034408331B6801EAF3
:1003340004021A60FA79114913469B0013449B0086
:100344000B4408331B6819683B795B1003F0030204
:10035400BB795B0002FA03F31C46FA79074813469B
:100364009B0013449B00034408331B6841EA0402C6
:100374001A6000BF0837BD4690BC704700000020DB
:1003840090B484B000AF0346FB710B46BB711346B7
:100394007B71FA792C4913469B0013449B000B4450
:1003A4001B681B68BA795200032101FA02F21A4051
:1003B400BB795B0022FA03F3012B3DD17B79002B3F
:1003C4001BD0FA79204913469B0013449B000B442D
:1003D40010331B681968BB79012202FA03F31C4627
:1003E400FA79194813469B0013449B0003441033C5
:1003F4001B6841EA04021A601BE0FA7912491346A9
:100404009B0013449B000B4410331B681968BB7991
:10041400012202FA03F3DB431C46FA790A48134625
:100424009B0013449B00034410331B6801EA04023D
:100434001A600023FB7301E00123FB73FB7B184666
:100444001037BD4690BC70470000002080B584B0D2
:1004540000AF78600023FB6017E0FB68D9B20F4A55
:100464007B6813441B7818460122FB6802FA03F3E5
:1004740000EA0302FB6842FA03F3DBB21A460120E6
:10048400FFF77EFFFB680133FB60FB68062BE4DDAE
:1004940000BF00BF1037BD4680BD00BF280000204C
:1004A40080B400AF0D4B1B68591C0D4B83FB01231B
:1004B4009A10CB17D21A13469B0013445B00CA1A36
:1004C400064B1A60074B1B68064A43F0010313608E
:1004D40000BFBD465DF8047B704700BF500000209C
:1004E40067666666143C014080B400AF0B4B1B6822
:1004F400013B0A4A1360094B1B68002B02DA074BC5
:1005040009221A60064B1B68054A43F00203136074
:1005140000BFBD465DF8047B704700BF500000205B
:10052400143C014080B582B000AF0020FFF750FEBC
:100534000120FFF74DFE224B1B68214A43F4804300
:1005440013600223002200210020FFF759FE02233A
:10055400002201210020FFF753FE00237B6009E005
:100564007B68D9B2002301220120FFF749FE7B6892
:1005740001337B607B68062BF2DD124B1B68114A4A
:1005840023F0FF031360104B1B680F4A43F003036F
:1005940013600E4B1B680D4A43F0030313600C4BAE
:1005A400C0221A600B4BC0221A600B4B1B683B60C5
:1005B400074BC0221A603868FFF748FFF2E700BF14
:1005C4004438024008380140003C01400C3C0140E2
:1005D40000E100E080E100E05000002080B400AFC2
:1005E400064BD3F88830054A43F47003C2F88830C8
:1005F40000BFBD465DF8047B704700BF00ED00E01E
:10060400DFF834D00D480E490E4A002302E0D458D6
:10061400C4500433C4188C42F9D30B4A0B4C002346
:1006240001E013600432A242FBD3FFF7D7FF00F0CE
:1006340011F8FFF777FF7047000001200000002049
:1006440034000020C00600083400002054000020BC
:10065400FEE7000070B50D4D0D4C641BA410002680
:10066400A64209D10B4D0C4C00F018F8641BA410E1
:100674000026A64205D170BD55F8043B98470136C3
:10068400EEE755F8043B98470136F2E7B806000850
:10069400B8060008B8060008BC060008F8B500BF94
:1006A400F8BC08BC9E467047F8B500BFF8BC08BC4F
:0406B4009E467047A7
:0406B800B90100087C
:0406BC00950100089C
:1006C00000000240040002400C0002401000024002
:1006D0001400024000040240040402400C040240E2
:1006E00010040240140402403F065B4F666D7D0714
:0406F0007F6F000018
:0400000508000605E4
:00000001FF
