:020000040800F2
:1000000000000120D1060008210700082107000890
:100010002107000821070008210700080000000050
:1000200000000000000000000000000021070008A0
:100030002107000800000000210700082107000830
:1000400021070008210700082107000821070008F0
:1000500021070008210700082107000821070008E0
:1000600021070008210700082107000821070008D0
:1000700021070008210700082107000821070008C0
:1000800021070008210700082107000800000000E0
:100090000000000000000000000000002107000830
:1000A0002107000821070008210700082107000890
:1000B0002107000821070008210700082107000880
:1000C0002107000821070008210700082107000870
:1000D0002107000821070008210700080000000090
:1000E0002107000821070008210700080000000080
:1000F00000000000000000000000000021070008D0
:10010000000000002107000821070008210700085F
:1001100000000000000000000000000000000000DF
:10012000210700082107000821070008210700080F
:10013000210700080000000000000000000000008F
:10014000000000000000000000000000210700087F
:1001500021070008210700082107000821070008DF
:10016000210700082107000800000000000000002F
:10017000000000000000000000000000000000007F
:10018000000000002107000800000000000000003F
:04019000210700083B
:1001940010B5054C237833B9044B13B10448AFF3BD
:1001A40000800123237010BD000000200000000027
:1001B4006C07000808B5034B1BB103490348AFF3B0
:1001C400008008BD00000000040000206C07000847
:1001D40080B485B000AFB9607A603B600346FB73BE
:1001E400FB7B412B03D0422B00F085800AE1884B36
:1001F4001B6B874A43F0010313637B68032B00F2F4
:10020400FE8001A252F823F01D02000875020008C6
:10021400C9020008E10200087E4B1B68BA6852005C
:10022400032101FA02F2D24311467A4A0B401360C9
:100234003B68012B03D03B68022B0CD05AE0754B72
:10024400DB68BA685200012101FA02F21146714AD0
:100254000B43D3600BE06F4BDB68BA68520002219A
:1002640001FA02F211466B4A0B43D36000BF41E02E
:10027400684B1B68BA685200012101FA02F2114668
:10028400644A0B4313603B68002B03D03B68012B8B
:100294000CD02FE05F4B5B680121BA6801FA02F2CF
:1002A400D24311465B4A0B4053600AE0594B5B68EA
:1002B4000121BA6801FA02F21146564A0B4353600F
:1002C40000BF17E0534B1B68BA685200022101FAC1
:1002D40002F211464F4A0B4313600BE04D4B1B686F
:1002E400BA685200032101FA02F21146494A0B434B
:1002F400136000BF83E0464B1B6B454A43F0020387
:1003040013637B68032B7CD801A252F823F000BF4F
:10031400250300087D030008D1030008E903000851
:100324003D4B1B68BA685200032101FA02F2D24322
:100334001146394A0B4013603B68012B03D03B68DC
:10034400022B0CD05AE0344BDB68BA68520001210E
:1003540001FA02F21146304A0B43D3600BE02E4BF4
:10036400DB68BA685200022101FA02F211462A4AF5
:100374000B43D36000BF41E0274B1B68BA685200AF
:10038400012101FA02F21146234A0B4313603B6830
:10039400002B03D03B68012B0CD02FE01E4B5B6875
:1003A4000121BA6801FA02F2D24311461A4A0B40FB
:1003B40053600AE0184B5B680121BA6801FA02F243
:1003C4001146154A0B43536000BF17E0124B1B68DC
:1003D400BA685200022101FA02F211460E4A0B4396
:1003E40013600BE00C4B1B68BA685200032101FA3E
:1003F40002F21146084A0B43136000BF01E000BF3C
:1004040000E000BF00BF1437BD465DF8047B7047B1
:1004140000380240000002400004024080B487B06B
:1004240000AF0346B9607A60FB73FB7B412B02D0BB
:10043400422B2DD059E0304B1B68BA68520003217F
:1004440001FA02F21A40BB685B0022FA03F3012BA3
:100454001BD17B68002B0AD0274B5B690121BA684A
:1004640001FA02F21146244A0B4353610AE0224B7B
:100474005B690121BA6801FA02F2D24311461E4AAD
:100484000B4053610023FB752FE00123FB752CE027
:100494001A4B1B68BA685200012101FA02F21A4091
:1004A400BB685B0022FA03F3002B1BD07B68002B94
:1004B4000AD0124B5B690121BA6801FA02F21146B3
:1004C4000E4A0B4353610AE00C4B5B690121BA6885
:1004D40001FA02F2D2431146084A0B405361002349
:1004E400FB7501E00123FB7500BFFB7D18461C373B
:1004F400BD465DF8047B70470000024000040240E2
:1005040080B485B000AF78600023FB6002E0FB6834
:100514000133FB60FA687B689A42F8DB00BF00BFD6
:100524001437BD465DF8047B7047000080B586B083
:1005340000AF00237B6108E0796900230122412098
:10054400FFF746FE7B6901337B617B69062BF3DD94
:10055400534B3B6000233B613B69092B7ED801A2CE
:1005640052F823F0910500089D050008C70500080E
:10057400DD050008F3050008130600082906000835
:100584003506000861060008550600080122062108
:100594004120FFF743FF61E0012200214120FFF7E2
:1005A4003DFF0323FB6008E0FB680122194641205C
:1005B400FFF734FFFB680133FB60FB68062BF3DDB8
:1005C4004CE0012202214120FFF728FF01220521EE
:1005D4004120FFF723FF41E0012204214120FFF7DE
:1005E4001DFF012205214120FFF718FF36E00122FB
:1005F40000214120FFF712FF012203214120FFF7D0
:100604000DFF012204214120FFF708FF26E001220B
:1006140001214120FFF702FF012204214120FFF7BD
:10062400FDFE1BE0012201214120FFF7F7FE15E04A
:100634000323BB6008E0BB68012219464120FFF791
:10064400EDFEBB680133BB60BB68062BF3DD05E040
:10065400012204214120FFF7E1FE00BF3868FFF7C3
:100664004FFF00237B6008E07B680022194641208D
:10067400FFF7D4FE7B6801337B607B68062BF3DDD8
:100684003B695A1C074B83FB02139910D317C91AF1
:100694000B469B000B445B00D31A3B615CE700BF35
:1006A40040420F006766666680B400AF064BD3F81D
:1006B4008830054A43F47003C2F8883000BFBD4651
:1006C4005DF8047B704700BF00ED00E0DFF834D034
:1006D4000D480E490E4A002302E0D458C450043396
:1006E400C4188C42F9D30B4A0B4C002301E013606D
:1006F4000432A242FBD3FFF7D7FF00F011F8FFF753
:1007040015FF7047000001200000002000000020B9
:100714008C070008000000201C000020FEE70000F9
:1007240070B50D4D0D4C641BA4100026A64209D1D2
:100734000B4D0C4C00F018F8641BA4100026A642C4
:1007440005D170BD55F8043B98470136EEE755F8DE
:10075400043B98470136F2E7840700088407000841
:100764008407000888070008F8B500BFF8BC08BC77
:100774009E467047F8B500BFF8BC08BC9E4670475B
:04078400B9010008AF
:0407880095010008CF
:04000005080006D118
:00000001FF
