:020000040800F2
:10000000000001204D0700089D0700089D0700081B
:100010009D0700089D0700089D07000800000000DC
:100020000000000000000000000000009D07000824
:100030009D070008000000009D0700089D070008BC
:100040009D0700089D0700089D0700089D07000800
:100050009D0700089D0700089D0700089D070008F0
:100060009D0700089D0700089D0700089D070008E0
:100070009D0700089D0700089D0700089D070008D0
:100080009D0700089D0700089D070008000000006C
:100090000000000000000000000000009D070008B4
:1000A0009D0700089D0700089D0700089D070008A0
:1000B0009D0700089D0700089D0700089D07000890
:1000C0009D0700089D0700089D0700089D07000880
:1000D0009D0700089D0700089D070008000000001C
:1000E0009D0700089D0700089D070008000000000C
:1000F0000000000000000000000000009D07000854
:10010000000000009D0700089D0700089D070008EB
:1001100000000000000000000000000000000000DF
:100120009D0700089D0700089D0700089D0700081F
:100130009D07000800000000000000000000000013
:100140000000000000000000000000009D07000803
:100150009D0700089D0700089D0700089D070008EF
:100160009D0700089D070008000000000000000037
:10017000000000000000000000000000000000007F
:10018000000000009D0700080000000000000000C3
:040190009D070008BF
:1001940010B5054C237833B9044B13B10448AFF3BD
:1001A40000800123237010BD1C000020000000000B
:1001B400E807000808B5034B1BB103490348AFF334
:1001C400008008BD0000000020000020E8070008AF
:1001D40080B483B000AF0346FB71FB79412B02D09E
:1001E400422B07D00DE00A4B1B6B094A43F0010375
:1001F400136306E0064B1B6B054A43F002031363CB
:1002040000BF00BF0C37BD465DF8047B704700BFDC
:100214000038024090B482B000AF0446084611464C
:100224001A462346FB710346BB710B467B7113468A
:100234003B71FB79412B02D0422B49D091E04B4BCF
:100244001B68BA795200032101FA02F2D243114623
:10025400464A0B401360454B1B687979BA795200C2
:1002640001FA02F21146414A0B4313603F4B5B68AB
:10027400BA79012101FA02F2D24311463B4A0B40FA
:1002840053603A4B5B683A7902F00101BA7901FA9A
:1002940002F21146354A0B435360344BDB68BA799A
:1002A4005200032101FA02F2D24311462F4A0B40B5
:1002B400D3602E4BDB683A79521002F00301BA790D
:1002C400520001FA02F21146284A0B43D36048E077
:1002D400274B1B68BA795200032101FA02F2D24378
:1002E4001146234A0B401360214B1B687979BA7974
:1002F400520001FA02F211461D4A0B4313601C4BD3
:100304005B68BA79012101FA02F2D2431146184A14
:100314000B405360164B5B683A7902F00101BA79DD
:1003240001FA02F21146124A0B435360104BDB6888
:10033400BA795200032101FA02F2D24311460C4A5F
:100344000B40D3600A4BDB683A79521002F0030188
:10035400BA79520001FA02F21146054A0B43D360FE
:1003640000BF00BF0837BD4690BC70470000024084
:100374000004024080B485B000AF0346FB710B4615
:10038400BB7113467B71FB79412B02D0422B2DD0DC
:1003940059E0324B1B68BA795200032101FA02F288
:1003A4001A40BB795B0022FA03F3012B1BD17B7942
:1003B400002B0AD0294B5B69BA79012101FA02F2B8
:1003C4001146264A0B4353610AE0244B5B69BA7910
:1003D400012101FA02F2D2431146204A0B40536133
:1003E4000023FB7332E00123FB732FE01C4B1B68DB
:1003F400BA795200032101FA02F21A40BB795B0078
:1004040022FA03F3012B1BD17B79002B0AD0144B66
:100414005B69BA79012101FA02F21146104A0B43D1
:1004240053610AE00E4B5B69BA79012101FA02F2C9
:10043400D24311460A4A0B4053610023FB7305E083
:100444000123FB7302E00123FB7300BFFB7B18460F
:100454001437BD465DF8047B704700BF00000240BE
:100464000004024080B485B000AF03460A46FB7125
:100474001346BB710023FB73FB79412B02D0422B43
:100484000CD017E00F4B1B69BA79012101FA02F273
:100494001A40BB7922FA03F3FB730BE00A4B1B6986
:1004A400BA79012101FA02F21A40BB7922FA03F364
:1004B400FB7300BFFB7B18461437BD465DF8047B15
:1004C400704700BF000002400004024080B582B0C3
:1004D40000AF4220FFF77CFE00237B6009E07B68CD
:1004E400D9B2002301224220FFF794FE7B68013336
:1004F4007B607B68022BF2DD03233B6009E03B68F1
:10050400D9B2022300224220FFF784FE3B68013364
:100514003B603B68062BF2DD00BF00BF0837BD46D9
:1005240080BD000080B584B000AF304B1B78002B39
:1005340057D10023FB6051E0FB68DBB2002219466F
:100544004220FFF717FFFB685A1C294B83FB02313B
:10055400D317C91A0B465B000B44D11ACBB2012244
:1005640019464220FFF706FFFB689A1C204B83FBC9
:100574000231D317C91A0B465B000B44D11ACBB214
:10058400012219464220FFF7F5FE0023BB601FE05D
:10059400BB68DBB20333DBB219464220FFF762FFCC
:1005A4000346FB71FB79002B0FD1104B01221A700B
:1005B4001049BA6813465B001344CA18FB68134415
:1005C4001A780D4B1A7000F045F8BB680133BB6014
:1005D400BB68032BDCDDFB680133FB60FB68022B8B
:1005E400AADD00BF1037BD4680BD00BF3800002023
:1005F40056555555000000200C00002080B400AF73
:10060400074B1B78002B05D0054B00221A70054BB5
:100614001B7800E0FF231846BD465DF8047B704755
:10062400380000200C00002080B483B000AF002309
:100634007B6002E07B6801337B607B6847F22F526A
:100644009342F7D900BF00BF0C37BD465DF8047B69
:100654007047000080B582B000AFFFF7CFFF0346BC
:10066400FB71FB79232B02D0FB792A2B01D10023C8
:10067400FB71FB79002B05D1012207214120FFF7F3
:1006840079FE07E0FB79062B04D1002207214120E3
:10069400FFF770FE00233B6016E03B68D9B2FB799C
:1006A4000D4AD35C184601223B6802FA03F300EAC0
:1006B40003023B6842FA03F3DBB21A464120FFF718
:1006C40059FE3B6801333B603B68062BE5DD00BF08
:1006D40000BF0837BD4680BD1000002080B582B041
:1006E40000AF4120FFF774FD00237B6009E07B68C5
:1006F400D9B2002301224120FFF78CFD7B6801332E
:100704007B607B68062BF2DDFFF7E0FE002301220D
:1007140007214120FFF77EFDFFF704FFFFF784FF69
:10072400FAE7000080B400AF064BD3F88830054ADE
:1007340043F47003C2F8883000BFBD465DF8047B03
:10074400704700BF00ED00E0DFF834D00D480E49DB
:100754000E4A002302E0D458C4500433C4188C4217
:10076400F9D30B4A0B4C002301E013600432A2427C
:10077400FBD3FFF7D7FF00F011F8FFF7AFFF704787
:1007840000000120000000201C00002008080008D0
:100794001C0000203C000020FEE7000070B50D4D59
:1007A4000D4C641BA4100026A64209D10B4D0C4C21
:1007B40000F018F8641BA4100026A64205D170BDF1
:1007C40055F8043B98470136EEE755F8043B984743
:1007D4000136F2E7000800080008000800080008D5
:1007E40004080008F8B500BFF8BC08BC9E46704772
:0C07F400F8B500BFF8BC08BC9E4670477A
:04080000B901000832
:040804009501000852
:100808000102030405060708092A0023FF00000067
:0C0818003F065B4F666D7D077F6F0000A0
:040000050800074D9B
:00000001FF
