:020000040800F2
:1000000000000120ED0600083D0700083D0700083C
:100010003D0700083D0700083D07000800000000FC
:100020000000000000000000000000003D07000884
:100030003D070008000000003D0700083D070008DC
:100040003D0700083D0700083D0700083D07000880
:100050003D0700083D0700083D0700083D07000870
:100060003D0700083D0700083D0700083D07000860
:100070003D0700083D0700083D0700083D07000850
:100080003D0700083D0700083D070008000000008C
:100090000000000000000000000000003D07000814
:1000A0003D0700083D0700083D0700083D07000820
:1000B0003D0700083D0700083D0700083D07000810
:1000C0003D0700083D0700083D0700083D07000800
:1000D0003D0700083D0700083D070008000000003C
:1000E0003D0700083D0700083D070008000000002C
:1000F0000000000000000000000000003D070008B4
:10010000000000003D0700083D0700083D0700080B
:1001100000000000000000000000000000000000DF
:100120003D0700083D0700083D0700083D0700089F
:100130003D07000800000000000000000000000073
:100140000000000000000000000000003D07000863
:100150003D0700083D0700083D0700083D0700086F
:100160003D0700083D0700080000000000000000F7
:10017000000000000000000000000000000000007F
:10018000000000003D070008000000000000000023
:040190003D0700081F
:1001940010B5054C237833B9044B13B10448AFF3BD
:1001A40000800123237010BD4400002000000000E3
:1001B4008807000808B5034B1BB103490348AFF394
:1001C400008008BD000000004800002088070008E7
:1001D40080B483B000AF0346FB71084B1B68FA7907
:1001E400012101FA02F21146044A0B43136000BFD5
:1001F4000C37BD465DF8047B704700BF30380240C1
:1002040090B482B000AF0446084611461A4623460D
:10021400FB710346BB710B467B7113463B71FA7944
:10022400564913469B0013449B000B441B681968F2
:10023400BB795B00032202FA03F3DB431C46FA7921
:100244004E4813469B0013449B0003441B6801EA79
:1002540004021A60FA79494913469B0013449B002F
:100264000B441B6819687A79BB795B0002FA03F3C3
:100274001C46FA79414813469B0013449B000344EF
:100284001B6841EA04021A60FA793C4913469B0050
:1002940013449B000B4404331B681968BB79012287
:1002A40002FA03F3DB431C46FA79344813469B00F5
:1002B40013449B00034404331B6801EA04021A60DC
:1002C400FA792E4913469B0013449B000B440433D4
:1002D4001B6819683B7903F00102BB7902FA03F346
:1002E4001C46FA79254813469B0013449B0003449B
:1002F40004331B6841EA04021A60FA791F49134661
:100304009B0013449B000B4408331B681968BB799A
:100314005B00032202FA03F3DB431C46FA79174815
:1003240013469B0013449B00034408331B6801EAF3
:1003340004021A60FA79114913469B0013449B0086
:100344000B4408331B6819683B795B1003F0030204
:10035400BB795B0002FA03F31C46FA79074813469B
:100364009B0013449B00034408331B6841EA0402C6
:100374001A6000BF0837BD4690BC704700000020DB
:1003840090B484B000AF0346FB710B46BB711346B7
:100394007B71FA792C4913469B0013449B000B4450
:1003A4001B681B68BA795200032101FA02F21A4051
:1003B400BB795B0022FA03F3012B3DD17B79002B3F
:1003C4001BD0FA79204913469B0013449B000B442D
:1003D40010331B681968BB79012202FA03F31C4627
:1003E400FA79194813469B0013449B0003441033C5
:1003F4001B6841EA04021A601BE0FA7912491346A9
:100404009B0013449B000B4410331B681968BB7991
:10041400012202FA03F3DB431C46FA790A48134625
:100424009B0013449B00034410331B6801EA04023D
:100434001A600023FB7301E00123FB73FB7B184666
:100444001037BD4690BC70470000002080B485B0D2
:1004540000AF03460A46FB711346BB710023FB73CE
:10046400FA790C4913469B0013449B000B440C334C
:100474001B681B68BA79012101FA02F21A40BB79A0
:1004840022FA03F3FB73FB7B18461437BD465DF871
:10049400047B70470000002080B582B000AF0120CB
:1004A400FFF796FE00237B6009E07B68D9B2002346
:1004B40001220120FFF7A4FE7B6801337B607B6887
:1004C400022BF2DD03233B6009E03B68D9B202232F
:1004D40000220120FFF794FE3B6801333B603B6838
:1004E400062BF2DD00BF00BF0837BD4680BD00000B
:1004F40080B584B000AF304B1B78002B57D100235C
:10050400FB6051E0FB68DBB2002219460120FFF7D3
:1005140037FFFB685A1C294B83FB0231D317C91AD6
:100524000B465B000B44D11ACBB2012219460120C1
:10053400FFF726FFFB689A1C204B83FB0231D3177D
:10054400C91A0B465B000B44D11ACBB201221946DF
:100554000120FFF715FF0023BB601FE0BB68DBB27F
:100564000333DBB219460120FFF770FF0346FB712A
:10057400FB79002B0FD1104B01221A701049BA6875
:1005840013465B001344CA18FB6813441A780D4BD6
:100594001A7000F045F8BB680133BB60BB68032BDD
:1005A400DCDDFB680133FB60FB68022BAADD00BFC6
:1005B4001037BD4680BD00BF60000020565555551C
:1005C400280000203400002080B400AF074B1B78C3
:1005D400002B05D0054B00221A70054B1B7800E058
:1005E400FF231846BD465DF8047B70476000002079
:1005F4003400002080B483B000AF00237B6002E0AD
:100604007B6801337B607B6847F22F529342F7D9B2
:1006140000BF00BF0C37BD465DF8047B7047000087
:1006240080B582B000AFFFF7CFFF0346FB71FB79C3
:10063400232B02D0FB792A2B01D10023FB71002349
:100644003B6016E03B68D9B2FB790E4AD35C18468E
:1006540001223B6802FA03F300EA03023B6842FA10
:1006640003F3DBB21A460020FFF78AFE3B6801332E
:100674003B603B68062BE5DD00BF00BF0837BD4685
:1006840080BD00BF3800002080B582B000AF0020DC
:10069400FFF79EFD00237B6009E07B68D9B200234D
:1006A40001220020FFF7ACFD7B6801337B607B688F
:1006B400062BF2DDFFF7F0FEFFF71AFFFFF79AFFB4
:1006C400FAE7000080B400AF064BD3F88830054A3F
:1006D40043F47003C2F8883000BFBD465DF8047B64
:1006E400704700BF00ED00E0DFF834D00D480E493C
:1006F4000E4A002302E0D458C4500433C4188C4278
:10070400F9D30B4A0B4C002301E013600432A242DC
:10071400FBD3FFF7D7FF00F011F8FFF7B5FF7047E1
:10072400000001200000002044000020A807000869
:100734004400002064000020FEE7000070B50D4D69
:100744000D4C641BA4100026A64209D10B4D0C4C81
:1007540000F018F8641BA4100026A64205D170BD51
:1007640055F8043B98470136EEE755F8043B9847A3
:100774000136F2E7A0070008A0070008A007000858
:10078400A4070008F8B500BFF8BC08BC9E46704733
:0C079400F8B500BFF8BC08BC9E467047DA
:0407A000B901000893
:0407A40095010008B3
:1007A80000000240040002400C0002401000024019
:1007B8001400024000040240040402400C040240F9
:1007C800100402401404024001020304050607084D
:1007D800092A0023FF0000003F065B4F666D7D0776
:0407E8007F6F00001F
:04000005080006EDFC
:00000001FF
